{
  "transactions": [
    {
      "hash": "0xc13deb24665ade4b4d5d32b312b7bebfb9cd4ac56cf9648677687599f57986c5",
      "transactionType": "CALL",
      "contractName": null,
      "contractAddress": "0xd61e5e3a3ac3eea56466462dbd0121c5e29aaeb7",
      "function": "whitelistHospital(address,string)",
      "arguments": [
        "0x8b9616c56fc48cf040F7204CFD6D67ef34f6CF21",
        "RS Medichain Central"
      ],
      "transaction": {
        "from": "0x8b9616c56fc48cf040f7204cfd6d67ef34f6cf21",
        "to": "0xd61e5e3a3ac3eea56466462dbd0121c5e29aaeb7",
        "gas": "0x19010",
        "value": "0x0",
        "input": "0x673de2880000000000000000000000008b9616c56fc48cf040f7204cfd6d67ef34f6cf21000000000000000000000000000000000000000000000000000000000000004000000000000000000000000000000000000000000000000000000000000000145253204d656469636861696e2043656e7472616c000000000000000000000000",
        "nonce": "0x17",
        "chainId": "0x106a"
      },
      "additionalContracts": [],
      "isFixedGasLimit": false
    },
    {
      "hash": "0xfabf5eecf932e99f86eb6bd2c045c46287cda36bcd47abeb2e9663223876e94b",
      "transactionType": "CALL",
      "contractName": null,
      "contractAddress": "0xd61e5e3a3ac3eea56466462dbd0121c5e29aaeb7",
      "function": "mintIdentity(address)",
      "arguments": [
        "0xA06c806a1616577f4ABc2368e6e9dAA9611eDE3B"
      ],
      "transaction": {
        "from": "0x8b9616c56fc48cf040f7204cfd6d67ef34f6cf21",
        "to": "0xd61e5e3a3ac3eea56466462dbd0121c5e29aaeb7",
        "gas": "0x4260a",
        "value": "0x0",
        "input": "0x86f66622000000000000000000000000a06c806a1616577f4abc2368e6e9daa9611ede3b",
        "nonce": "0x18",
        "chainId": "0x106a"
      },
      "additionalContracts": [],
      "isFixedGasLimit": false
    },
    {
      "hash": "0x8247634394274001f3225dffb916eeb76391b194ff43ceb21beb4795b38c8ae0",
      "transactionType": "CALL",
      "contractName": null,
      "contractAddress": "0xd61e5e3a3ac3eea56466462dbd0121c5e29aaeb7",
      "function": "grantAccess(address,string,uint256)",
      "arguments": [
        "0x8b9616c56fc48cf040F7204CFD6D67ef34f6CF21",
        "ADD_RECORDS",
        "1798712520"
      ],
      "transaction": {
        "from": "0xa06c806a1616577f4abc2368e6e9daa9611ede3b",
        "to": "0xd61e5e3a3ac3eea56466462dbd0121c5e29aaeb7",
        "gas": "0x392d1",
        "value": "0x0",
        "input": "0x7f93a9610000000000000000000000008b9616c56fc48cf040f7204cfd6d67ef34f6cf210000000000000000000000000000000000000000000000000000000000000060000000000000000000000000000000000000000000000000000000006b362cc8000000000000000000000000000000000000000000000000000000000000000b4144445f5245434f524453000000000000000000000000000000000000000000",
        "nonce": "0x1",
        "chainId": "0x106a"
      },
      "additionalContracts": [],
      "isFixedGasLimit": false
    },
    {
      "hash": "0xdfc2bc6a9fe7bca7c7bda7a5752fee6a0f6e30df26cf8ca61dcf00e99fc1b679",
      "transactionType": "CALL",
      "contractName": null,
      "contractAddress": "0xd61e5e3a3ac3eea56466462dbd0121c5e29aaeb7",
      "function": "addMedicalRecord(address,string,bytes32,string,string)",
      "arguments": [
        "0xA06c806a1616577f4ABc2368e6e9dAA9611eDE3B",
        "QmTyphoidRecordIPFSHash12345",
        "0xdb8f92f13260c6c74f3b0ab7b58f4c45e24936495d70fa17bd6197ececd44109",
        "A01.0",
        "DIAGNOSIS"
      ],
      "transaction": {
        "from": "0x8b9616c56fc48cf040f7204cfd6d67ef34f6cf21",
        "to": "0xd61e5e3a3ac3eea56466462dbd0121c5e29aaeb7",
        "gas": "0x52020",
        "value": "0x0",
        "input": "0xf76b6893000000000000000000000000a06c806a1616577f4abc2368e6e9daa9611ede3b00000000000000000000000000000000000000000000000000000000000000a0db8f92f13260c6c74f3b0ab7b58f4c45e24936495d70fa17bd6197ececd4410900000000000000000000000000000000000000000000000000000000000000e00000000000000000000000000000000000000000000000000000000000000120000000000000000000000000000000000000000000000000000000000000001c516d547970686f69645265636f7264495046534861736831323334350000000000000000000000000000000000000000000000000000000000000000000000054130312e300000000000000000000000000000000000000000000000000000000000000000000000000000000000000000000000000000000000000000000009444941474e4f5349530000000000000000000000000000000000000000000000",
        "nonce": "0x19",
        "chainId": "0x106a"
      },
      "additionalContracts": [],
      "isFixedGasLimit": false
    },
    {
      "hash": "0x14434e83988ed77fabaec2aa260825fe2c419171863f0205e866bfb00294c655",
      "transactionType": "CALL",
      "contractName": null,
      "contractAddress": "0xd61e5e3a3ac3eea56466462dbd0121c5e29aaeb7",
      "function": "whitelistHospital(address,string)",
      "arguments": [
        "0x473c714d981337F715d97d1E49675BE954D75672",
        "RS B - Rumah Sakit Budi"
      ],
      "transaction": {
        "from": "0x8b9616c56fc48cf040f7204cfd6d67ef34f6cf21",
        "to": "0xd61e5e3a3ac3eea56466462dbd0121c5e29aaeb7",
        "gas": "0x19042",
        "value": "0x0",
        "input": "0x673de288000000000000000000000000473c714d981337f715d97d1e49675be954d756720000000000000000000000000000000000000000000000000000000000000040000000000000000000000000000000000000000000000000000000000000001752532042202d2052756d61682053616b69742042756469000000000000000000",
        "nonce": "0x1a",
        "chainId": "0x106a"
      },
      "additionalContracts": [],
      "isFixedGasLimit": false
    },
    {
      "hash": "0xe8c1e5380d5b6c06147750f450a5c892fb89cb71a57b9d6ee155c75d69fd03b4",
      "transactionType": "CALL",
      "contractName": null,
      "contractAddress": "0xd61e5e3a3ac3eea56466462dbd0121c5e29aaeb7",
      "function": "grantAccess(address,string,uint256)",
      "arguments": [
        "0x473c714d981337F715d97d1E49675BE954D75672",
        "VIEW_RECORDS",
        "1769768520"
      ],
      "transaction": {
        "from": "0xa06c806a1616577f4abc2368e6e9daa9611ede3b",
        "to": "0xd61e5e3a3ac3eea56466462dbd0121c5e29aaeb7",
        "gas": "0x3369e",
        "value": "0x0",
        "input": "0x7f93a961000000000000000000000000473c714d981337f715d97d1e49675be954d75672000000000000000000000000000000000000000000000000000000000000006000000000000000000000000000000000000000000000000000000000697c8648000000000000000000000000000000000000000000000000000000000000000c564945575f5245434f5244530000000000000000000000000000000000000000",
        "nonce": "0x2",
        "chainId": "0x106a"
      },
      "additionalContracts": [],
      "isFixedGasLimit": false
    }
  ],
  "receipts": [
    {
      "status": "0x1",
      "cumulativeGasUsed": "0x1d5f2",
      "logs": [
        {
          "address": "0xd61e5e3a3ac3eea56466462dbd0121c5e29aaeb7",
          "topics": [
            "0x2f8788117e7eff1d82e926ec794901d17c78024a50270940304540a733656f0d",
            "0xc8f5b4140cca307cd927e59cbeea8291bffeee228fc677f0fa059aef7b4dd8d5",
            "0x0000000000000000000000008b9616c56fc48cf040f7204cfd6d67ef34f6cf21",
            "0x0000000000000000000000008b9616c56fc48cf040f7204cfd6d67ef34f6cf21"
          ],
          "data": "0x",
          "blockHash": "0xa6e3b37f8cba6d57ba5d5f4b8fa69ea24ab88ca0e9cd94c47d6d1b8a45da7c4b",
          "blockNumber": "0x1d7fb47",
          "blockTimestamp": "0x6954f96e",
          "transactionHash": "0xc13deb24665ade4b4d5d32b312b7bebfb9cd4ac56cf9648677687599f57986c5",
          "transactionIndex": "0x1",
          "logIndex": "0x0",
          "removed": false
        },
        {
          "address": "0xd61e5e3a3ac3eea56466462dbd0121c5e29aaeb7",
          "topics": [
            "0xa3b5502b305087a36d5c8786a0673e0c3233be66c5838d336d966360d8b65682",
            "0x0000000000000000000000008b9616c56fc48cf040f7204cfd6d67ef34f6cf21"
          ],
          "data": "0x000000000000000000000000000000000000000000000000000000000000002000000000000000000000000000000000000000000000000000000000000000145253204d656469636861696e2043656e7472616c000000000000000000000000",
          "blockHash": "0xa6e3b37f8cba6d57ba5d5f4b8fa69ea24ab88ca0e9cd94c47d6d1b8a45da7c4b",
          "blockNumber": "0x1d7fb47",
          "blockTimestamp": "0x6954f96e",
          "transactionHash": "0xc13deb24665ade4b4d5d32b312b7bebfb9cd4ac56cf9648677687599f57986c5",
          "transactionIndex": "0x1",
          "logIndex": "0x1",
          "removed": false
        }
      ],
      "logsBloom": "0x00000004000000000000000000000000000000000000000000000000000000000001000000000000000010000000000000000000000000000100000000000000000000000000000000000800000000000000008000000000000000000000000000000000400000000000000000000002000000000000000000000000000000000000000000000000000000000000000020000000000000000000000000000000000000000000000100000000000000000000000080000000001000000000000000000000000000000000000000000000000100000000000100000000000000000000000000000000000000000000000000000000000000000080000000000000",
      "type": "0x2",
      "transactionHash": "0xc13deb24665ade4b4d5d32b312b7bebfb9cd4ac56cf9648677687599f57986c5",
      "transactionIndex": "0x1",
      "blockHash": "0xa6e3b37f8cba6d57ba5d5f4b8fa69ea24ab88ca0e9cd94c47d6d1b8a45da7c4b",
      "blockNumber": "0x1d7fb47",
      "gasUsed": "0x121a4",
      "effectiveGasPrice": "0xfe",
      "blobGasUsed": "0xa8c0",
      "from": "0x8b9616c56fc48cf040f7204cfd6d67ef34f6cf21",
      "to": "0xd61e5e3a3ac3eea56466462dbd0121c5e29aaeb7",
      "contractAddress": null,
      "daFootprintGasScalar": "0x190",
      "l1BaseFeeScalar": "0x2af8",
      "l1BlobBaseFee": "0x1",
      "l1BlobBaseFeeScalar": "0x109618",
      "l1Fee": "0x135",
      "l1GasPrice": "0xa",
      "l1GasUsed": "0x6cd"
    },
    {
      "status": "0x1",
      "cumulativeGasUsed": "0x3b528",
      "logs": [
        {
          "address": "0xd61e5e3a3ac3eea56466462dbd0121c5e29aaeb7",
          "topics": [
            "0xddf252ad1be2c89b69c2b068fc378daa952ba7f163c4a11628f55a4df523b3ef",
            "0x0000000000000000000000000000000000000000000000000000000000000000",
            "0x000000000000000000000000a06c806a1616577f4abc2368e6e9daa9611ede3b",
            "0x0000000000000000000000000000000000000000000000000000000000000001"
          ],
          "data": "0x",
          "blockHash": "0xe0355648738ad0d05eb3507e027ddec8e1d8e2f158cd7a61c17c035fba7e4f5a",
          "blockNumber": "0x1d7fb4a",
          "blockTimestamp": "0x6954f974",
          "transactionHash": "0xfabf5eecf932e99f86eb6bd2c045c46287cda36bcd47abeb2e9663223876e94b",
          "transactionIndex": "0x1",
          "logIndex": "0x0",
          "removed": false
        },
        {
          "address": "0xd61e5e3a3ac3eea56466462dbd0121c5e29aaeb7",
          "topics": [
            "0xde0b222d3e36a1ff291a16adb24ab89eed387b0e4cc07e3c902d02d3f0fa36f5",
            "0x000000000000000000000000a06c806a1616577f4abc2368e6e9daa9611ede3b",
            "0x0000000000000000000000000000000000000000000000000000000000000001"
          ],
          "data": "0x000000000000000000000000000000000000000000000000000000006954f974",
          "blockHash": "0xe0355648738ad0d05eb3507e027ddec8e1d8e2f158cd7a61c17c035fba7e4f5a",
          "blockNumber": "0x1d7fb4a",
          "blockTimestamp": "0x6954f974",
          "transactionHash": "0xfabf5eecf932e99f86eb6bd2c045c46287cda36bcd47abeb2e9663223876e94b",
          "transactionIndex": "0x1",
          "logIndex": "0x1",
          "removed": false
        }
      ],
      "logsBloom": "0x00000000000000000000000000000000000000000000000000000000000000000000000000000002000000000000000000000000000000000100000000040080000000000000000000000008000000000000000000040000000000000000000000000000820000000000000000000802000000000000000000000010000000000000000000000000000000000000000000000000000000000000000000000000000000000000000100000000000000000000000000000000000000800000000000000002000000000000000000000000000000000000000000000000000060000000000000000000000000000000000200000000000000000008000000000000",
      "type": "0x2",
      "transactionHash": "0xfabf5eecf932e99f86eb6bd2c045c46287cda36bcd47abeb2e9663223876e94b",
      "transactionIndex": "0x1",
      "blockHash": "0xe0355648738ad0d05eb3507e027ddec8e1d8e2f158cd7a61c17c035fba7e4f5a",
      "blockNumber": "0x1d7fb4a",
      "gasUsed": "0x300e6",
      "effectiveGasPrice": "0xfe",
      "blobGasUsed": "0x9c40",
      "from": "0x8b9616c56fc48cf040f7204cfd6d67ef34f6cf21",
      "to": "0xd61e5e3a3ac3eea56466462dbd0121c5e29aaeb7",
      "contractAddress": null,
      "daFootprintGasScalar": "0x190",
      "l1BaseFeeScalar": "0x2af8",
      "l1BlobBaseFee": "0x1",
      "l1BlobBaseFeeScalar": "0x109618",
      "l1Fee": "0x11c",
      "l1GasPrice": "0xa",
      "l1GasUsed": "0x640"
    },
    {
      "status": "0x1",
      "cumulativeGasUsed": "0x35582",
      "logs": [
        {
          "address": "0xd61e5e3a3ac3eea56466462dbd0121c5e29aaeb7",
          "topics": [
            "0x3cb7f6eca2e89478480f2e19de24bf888294c28de0d596963a54d49a51e2252d",
            "0x000000000000000000000000a06c806a1616577f4abc2368e6e9daa9611ede3b",
            "0x0000000000000000000000008b9616c56fc48cf040f7204cfd6d67ef34f6cf21"
          ],
          "data": "0x0000000000000000000000000000000000000000000000000000000000000040000000000000000000000000000000000000000000000000000000006b362cc8000000000000000000000000000000000000000000000000000000000000000b4144445f5245434f524453000000000000000000000000000000000000000000",
          "blockHash": "0x80baa413bf249767bbd710abed611b59aeef8a42595bdd99272affcad034fa2c",
          "blockNumber": "0x1d7fb4d",
          "blockTimestamp": "0x6954f97a",
          "transactionHash": "0x8247634394274001f3225dffb916eeb76391b194ff43ceb21beb4795b38c8ae0",
          "transactionIndex": "0x1",
          "logIndex": "0x0",
          "removed": false
        }
      ],
      "logsBloom": "0x00000000000000000000000000000000000000000000000000000000000000000000000000000002000000000000000000000000000000000100000000000000000000000000000000000800000000000001008000000000000200000000000000000000c00000000000000000000002000000040000000000000000000000000000000000000000000000000000000000000000000000000000000000000000000000000000000100000000000000000000000000000000000000000000000000000000000000000000000000000000000000000000000000000000000000000000000000000000000000000000000200000000000000000000000000000000",
      "type": "0x2",
      "transactionHash": "0x8247634394274001f3225dffb916eeb76391b194ff43ceb21beb4795b38c8ae0",
      "transactionIndex": "0x1",
      "blockHash": "0x80baa413bf249767bbd710abed611b59aeef8a42595bdd99272affcad034fa2c",
      "blockNumber": "0x1d7fb4d",
      "gasUsed": "0x2a140",
      "effectiveGasPrice": "0xfe",
      "blobGasUsed": "0xa8c0",
      "from": "0xa06c806a1616577f4abc2368e6e9daa9611ede3b",
      "to": "0xd61e5e3a3ac3eea56466462dbd0121c5e29aaeb7",
      "contractAddress": null,
      "daFootprintGasScalar": "0x190",
      "l1BaseFeeScalar": "0x2af8",
      "l1BlobBaseFee": "0x1",
      "l1BlobBaseFeeScalar": "0x109618",
      "l1Fee": "0x135",
      "l1GasPrice": "0xa",
      "l1GasUsed": "0x6cd"
    },
    {
      "status": "0x1",
      "cumulativeGasUsed": "0x47527",
      "logs": [
        {
          "address": "0xd61e5e3a3ac3eea56466462dbd0121c5e29aaeb7",
          "topics": [
            "0x5ad1b580d9c61c992fa3f879f9d282b40b66d49fd5006905bf1844d6f8084df8",
            "0x000000000000000000000000a06c806a1616577f4abc2368e6e9daa9611ede3b",
            "0x0000000000000000000000008b9616c56fc48cf040f7204cfd6d67ef34f6cf21"
          ],
          "data": "0x0000000000000000000000000000000000000000000000000000000000000060000000000000000000000000000000000000000000000000000000000000000000000000000000000000000000000000000000000000000000000000000000a0000000000000000000000000000000000000000000000000000000000000001c516d547970686f69645265636f7264495046534861736831323334350000000000000000000000000000000000000000000000000000000000000000000000054130312e30000000000000000000000000000000000000000000000000000000",
          "blockHash": "0xa9a1053a4fc5d295d162f4841ccafdd40694b4486978c3cbd3d44d6be47f8ec3",
          "blockNumber": "0x1d7fb4f",
          "blockTimestamp": "0x6954f97e",
          "transactionHash": "0xdfc2bc6a9fe7bca7c7bda7a5752fee6a0f6e30df26cf8ca61dcf00e99fc1b679",
          "transactionIndex": "0x1",
          "logIndex": "0x0",
          "removed": false
        }
      ],
      "logsBloom": "0x00000000000000000000000000000000000000000000000000000000000000000000000000000002000000000000000000000000000000000100000000000000000000000000000000000800000000000000008000000000000000000000000000000000c00000000000000000000002000000008000000000000000000000000000000000000000000000000000000000000000000000000000000000000000000000000000000100000000000000000000000000000000000000000000000000000000000000000000000000000000000000000000000100000000000000000000000000000000000000000000000200000400000000000000000000000000",
      "type": "0x2",
      "transactionHash": "0xdfc2bc6a9fe7bca7c7bda7a5752fee6a0f6e30df26cf8ca61dcf00e99fc1b679",
      "transactionIndex": "0x1",
      "blockHash": "0xa9a1053a4fc5d295d162f4841ccafdd40694b4486978c3cbd3d44d6be47f8ec3",
      "blockNumber": "0x1d7fb4f",
      "gasUsed": "0x3c0e5",
      "effectiveGasPrice": "0xfe",
      "blobGasUsed": "0x11df0",
      "from": "0x8b9616c56fc48cf040f7204cfd6d67ef34f6cf21",
      "to": "0xd61e5e3a3ac3eea56466462dbd0121c5e29aaeb7",
      "contractAddress": null,
      "daFootprintGasScalar": "0x190",
      "l1BaseFeeScalar": "0x2af8",
      "l1BlobBaseFee": "0x1",
      "l1BlobBaseFeeScalar": "0x109618",
      "l1Fee": "0x209",
      "l1GasPrice": "0xa",
      "l1GasUsed": "0xb74"
    },
    {
      "status": "0x1",
      "cumulativeGasUsed": "0x1d60a",
      "logs": [
        {
          "address": "0xd61e5e3a3ac3eea56466462dbd0121c5e29aaeb7",
          "topics": [
            "0x2f8788117e7eff1d82e926ec794901d17c78024a50270940304540a733656f0d",
            "0xc8f5b4140cca307cd927e59cbeea8291bffeee228fc677f0fa059aef7b4dd8d5",
            "0x000000000000000000000000473c714d981337f715d97d1e49675be954d75672",
            "0x0000000000000000000000008b9616c56fc48cf040f7204cfd6d67ef34f6cf21"
          ],
          "data": "0x",
          "blockHash": "0x91cb4fa0a007a10fe0760b2623eeaafad52c241ade9327aa818dcdc794111f3d",
          "blockNumber": "0x1d7fb52",
          "blockTimestamp": "0x6954f984",
          "transactionHash": "0x14434e83988ed77fabaec2aa260825fe2c419171863f0205e866bfb00294c655",
          "transactionIndex": "0x1",
          "logIndex": "0x0",
          "removed": false
        },
        {
          "address": "0xd61e5e3a3ac3eea56466462dbd0121c5e29aaeb7",
          "topics": [
            "0xa3b5502b305087a36d5c8786a0673e0c3233be66c5838d336d966360d8b65682",
            "0x000000000000000000000000473c714d981337f715d97d1e49675be954d75672"
          ],
          "data": "0x0000000000000000000000000000000000000000000000000000000000000020000000000000000000000000000000000000000000000000000000000000001752532042202d2052756d61682053616b69742042756469000000000000000000",
          "blockHash": "0x91cb4fa0a007a10fe0760b2623eeaafad52c241ade9327aa818dcdc794111f3d",
          "blockNumber": "0x1d7fb52",
          "blockTimestamp": "0x6954f984",
          "transactionHash": "0x14434e83988ed77fabaec2aa260825fe2c419171863f0205e866bfb00294c655",
          "transactionIndex": "0x1",
          "logIndex": "0x1",
          "removed": false
        }
      ],
      "logsBloom": "0x000001040000000000000000000000000000000000000000000000000000000000010000000000000000100000000000000000000000000001000000000000000000000000000000000008000000000000000080000000000000000000000000000000004000000000000000000000020000000000000000000000000000000000000000000000000000000000000000200000000000000000000000000000000000000000000001000000000000000000000000c0000000001000000000000000000000000000000000000000000000000100000000000100000000000000000000000000000000000000000000000000000000000000010080000000000000",
      "type": "0x2",
      "transactionHash": "0x14434e83988ed77fabaec2aa260825fe2c419171863f0205e866bfb00294c655",
      "transactionIndex": "0x1",
      "blockHash": "0x91cb4fa0a007a10fe0760b2623eeaafad52c241ade9327aa818dcdc794111f3d",
      "blockNumber": "0x1d7fb52",
      "gasUsed": "0x121c8",
      "effectiveGasPrice": "0xfe",
      "blobGasUsed": "0xabe0",
      "from": "0x8b9616c56fc48cf040f7204cfd6d67ef34f6cf21",
      "to": "0xd61e5e3a3ac3eea56466462dbd0121c5e29aaeb7",
      "contractAddress": null,
      "daFootprintGasScalar": "0x190",
      "l1BaseFeeScalar": "0x2af8",
      "l1BlobBaseFee": "0x1",
      "l1BlobBaseFeeScalar": "0x109618",
      "l1Fee": "0x13a",
      "l1GasPrice": "0xa",
      "l1GasUsed": "0x6e7"
    },
    {
      "status": "0x1",
      "cumulativeGasUsed": "0x312c2",
      "logs": [
        {
          "address": "0xd61e5e3a3ac3eea56466462dbd0121c5e29aaeb7",
          "topics": [
            "0x3cb7f6eca2e89478480f2e19de24bf888294c28de0d596963a54d49a51e2252d",
            "0x000000000000000000000000a06c806a1616577f4abc2368e6e9daa9611ede3b",
            "0x000000000000000000000000473c714d981337f715d97d1e49675be954d75672"
          ],
          "data": "0x000000000000000000000000000000000000000000000000000000000000004000000000000000000000000000000000000000000000000000000000697c8648000000000000000000000000000000000000000000000000000000000000000c564945575f5245434f5244530000000000000000000000000000000000000000",
          "blockHash": "0x4c36cac8fcd6c0d1b40e6aff5c00a7e7b78ab67a3cd4f5f0e1adc4ca56573053",
          "blockNumber": "0x1d7fb55",
          "blockTimestamp": "0x6954f98a",
          "transactionHash": "0xe8c1e5380d5b6c06147750f450a5c892fb89cb71a57b9d6ee155c75d69fd03b4",
          "transactionIndex": "0x1",
          "logIndex": "0x0",
          "removed": false
        }
      ],
      "logsBloom": "0x00000100000000000000000000000000000000000000000000000000000000000000000000000002000000000000000000000000000000000100000000000000000000000000000000000000000000000001000000000000000200000000000000000000800000000000000000000002000000040000000000000000000000000000000000000000000000000000000000000000000000000000000000000000000000000000000100000000000000000000000040000000000000000000000000000000000000000000000000000000000000000000000000000000000000000000000000000000000000000000000200000000000000010000000000000000",
      "type": "0x2",
      "transactionHash": "0xe8c1e5380d5b6c06147750f450a5c892fb89cb71a57b9d6ee155c75d69fd03b4",
      "transactionIndex": "0x1",
      "blockHash": "0x4c36cac8fcd6c0d1b40e6aff5c00a7e7b78ab67a3cd4f5f0e1adc4ca56573053",
      "blockNumber": "0x1d7fb55",
      "gasUsed": "0x25e80",
      "effectiveGasPrice": "0xfe",
      "blobGasUsed": "0xaa50",
      "from": "0xa06c806a1616577f4abc2368e6e9daa9611ede3b",
      "to": "0xd61e5e3a3ac3eea56466462dbd0121c5e29aaeb7",
      "contractAddress": null,
      "daFootprintGasScalar": "0x190",
      "l1BaseFeeScalar": "0x2af8",
      "l1BlobBaseFee": "0x1",
      "l1BlobBaseFeeScalar": "0x109618",
      "l1Fee": "0x138",
      "l1GasPrice": "0xa",
      "l1GasUsed": "0x6da"
    }
  ],
  "libraries": [],
  "pending": [],
  "returns": {},
  "timestamp": 1767176586543,
  "chain": 4202,
  "commit": "bb1829c"
}