{
  "transactions": [
    {
      "hash": "0x865651ef77efb7d6c4988937dc1b923a77487f5b374da1112cbb4f4323f1f6f6",
      "transactionType": "CALL",
      "contractName": null,
      "contractAddress": "0xd61e5e3a3ac3eea56466462dbd0121c5e29aaeb7",
      "function": "mintIdentity(address)",
      "arguments": [
        "0x09f484232739F451ac5BD79d77c8D2889e412030"
      ],
      "transaction": {
        "from": "0x8b9616c56fc48cf040f7204cfd6d67ef34f6cf21",
        "to": "0xd61e5e3a3ac3eea56466462dbd0121c5e29aaeb7",
        "gas": "0x4260a",
        "value": "0x0",
        "input": "0x86f6662200000000000000000000000009f484232739f451ac5bd79d77c8d2889e412030",
        "nonce": "0x1b",
        "chainId": "0x106a"
      },
      "additionalContracts": [],
      "isFixedGasLimit": false
    },
    {
      "hash": "0xeafd08a7e4abf72312fc97eb6f3f1fc30dd20c0f4adc382775886ed743d050b6",
      "transactionType": "CALL",
      "contractName": null,
      "contractAddress": "0xd61e5e3a3ac3eea56466462dbd0121c5e29aaeb7",
      "function": "grantAccess(address,string,uint256)",
      "arguments": [
        "0x8b9616c56fc48cf040F7204CFD6D67ef34f6CF21",
        "ADD_RECORDS",
        "1798726250"
      ],
      "transaction": {
        "from": "0x09f484232739f451ac5bd79d77c8d2889e412030",
        "to": "0xd61e5e3a3ac3eea56466462dbd0121c5e29aaeb7",
        "gas": "0x392d1",
        "value": "0x0",
        "input": "0x7f93a9610000000000000000000000008b9616c56fc48cf040f7204cfd6d67ef34f6cf210000000000000000000000000000000000000000000000000000000000000060000000000000000000000000000000000000000000000000000000006b36626a000000000000000000000000000000000000000000000000000000000000000b4144445f5245434f524453000000000000000000000000000000000000000000",
        "nonce": "0x1",
        "chainId": "0x106a"
      },
      "additionalContracts": [],
      "isFixedGasLimit": false
    },
    {
      "hash": "0x7f56f29f3e8b8a7d1110f93031ca0f75060577b3cbaca470a47837c2c606b71a",
      "transactionType": "CALL",
      "contractName": null,
      "contractAddress": "0xd61e5e3a3ac3eea56466462dbd0121c5e29aaeb7",
      "function": "addMedicalRecord(address,string,bytes32,string,string)",
      "arguments": [
        "0x09f484232739F451ac5BD79d77c8D2889e412030",
        "QmTyphoidRecord_1767190250",
        "0x9253a61b5912b35d9753044d72129dabe921d48f1ed7d357a33563564253fb17",
        "A01.0",
        "DIAGNOSIS"
      ],
      "transaction": {
        "from": "0x8b9616c56fc48cf040f7204cfd6d67ef34f6cf21",
        "to": "0xd61e5e3a3ac3eea56466462dbd0121c5e29aaeb7",
        "gas": "0x51ffe",
        "value": "0x0",
        "input": "0xf76b689300000000000000000000000009f484232739f451ac5bd79d77c8d2889e41203000000000000000000000000000000000000000000000000000000000000000a09253a61b5912b35d9753044d72129dabe921d48f1ed7d357a33563564253fb1700000000000000000000000000000000000000000000000000000000000000e00000000000000000000000000000000000000000000000000000000000000120000000000000000000000000000000000000000000000000000000000000001a516d547970686f69645265636f72645f3137363731393032353000000000000000000000000000000000000000000000000000000000000000000000000000054130312e300000000000000000000000000000000000000000000000000000000000000000000000000000000000000000000000000000000000000000000009444941474e4f5349530000000000000000000000000000000000000000000000",
        "nonce": "0x1c",
        "chainId": "0x106a"
      },
      "additionalContracts": [],
      "isFixedGasLimit": false
    },
    {
      "hash": "0xde9b1a6e12522a7ecfd53e92e46c302917eddd52ed52a4de2c2b402062e59e3a",
      "transactionType": "CALL",
      "contractName": null,
      "contractAddress": "0xd61e5e3a3ac3eea56466462dbd0121c5e29aaeb7",
      "function": "grantAccess(address,string,uint256)",
      "arguments": [
        "0x473c714d981337F715d97d1E49675BE954D75672",
        "VIEW_RECORDS",
        "1769782250"
      ],
      "transaction": {
        "from": "0x09f484232739f451ac5bd79d77c8d2889e412030",
        "to": "0xd61e5e3a3ac3eea56466462dbd0121c5e29aaeb7",
        "gas": "0x3369e",
        "value": "0x0",
        "input": "0x7f93a961000000000000000000000000473c714d981337f715d97d1e49675be954d75672000000000000000000000000000000000000000000000000000000000000006000000000000000000000000000000000000000000000000000000000697cbbea000000000000000000000000000000000000000000000000000000000000000c564945575f5245434f5244530000000000000000000000000000000000000000",
        "nonce": "0x2",
        "chainId": "0x106a"
      },
      "additionalContracts": [],
      "isFixedGasLimit": false
    }
  ],
  "receipts": [
    {
      "status": "0x1",
      "cumulativeGasUsed": "0x3b528",
      "logs": [
        {
          "address": "0xd61e5e3a3ac3eea56466462dbd0121c5e29aaeb7",
          "topics": [
            "0xddf252ad1be2c89b69c2b068fc378daa952ba7f163c4a11628f55a4df523b3ef",
            "0x0000000000000000000000000000000000000000000000000000000000000000",
            "0x00000000000000000000000009f484232739f451ac5bd79d77c8d2889e412030",
            "0x0000000000000000000000000000000000000000000000000000000000000002"
          ],
          "data": "0x",
          "blockHash": "0xe629898560731cb40abfa4b316ba176fb056e10d1b4748ca1912f9049d1a9859",
          "blockNumber": "0x1d81618",
          "blockTimestamp": "0x69552f10",
          "transactionHash": "0x865651ef77efb7d6c4988937dc1b923a77487f5b374da1112cbb4f4323f1f6f6",
          "transactionIndex": "0x1",
          "logIndex": "0x0",
          "removed": false
        },
        {
          "address": "0xd61e5e3a3ac3eea56466462dbd0121c5e29aaeb7",
          "topics": [
            "0xde0b222d3e36a1ff291a16adb24ab89eed387b0e4cc07e3c902d02d3f0fa36f5",
            "0x00000000000000000000000009f484232739f451ac5bd79d77c8d2889e412030",
            "0x0000000000000000000000000000000000000000000000000000000000000002"
          ],
          "data": "0x0000000000000000000000000000000000000000000000000000000069552f10",
          "blockHash": "0xe629898560731cb40abfa4b316ba176fb056e10d1b4748ca1912f9049d1a9859",
          "blockNumber": "0x1d81618",
          "blockTimestamp": "0x69552f10",
          "transactionHash": "0x865651ef77efb7d6c4988937dc1b923a77487f5b374da1112cbb4f4323f1f6f6",
          "transactionIndex": "0x1",
          "logIndex": "0x1",
          "removed": false
        }
      ],
      "logsBloom": "0x04000000000000000000000000000000000000000000000000000000000000000000000000000000000000000000000000000000000008000100000000000080000000000000000000000008000000000000000000000000000000000000000000000000020400000000000000000802000000000000000000000010000000000000000000000000000000000000000000000000000000000000000000000000000000000000000100000100000000000000000000000000000000800000002000000002000000000000000000000000000000000000000000000000000020000000000000000000000000000000000000000000008000000008000000000000",
      "type": "0x2",
      "transactionHash": "0x865651ef77efb7d6c4988937dc1b923a77487f5b374da1112cbb4f4323f1f6f6",
      "transactionIndex": "0x1",
      "blockHash": "0xe629898560731cb40abfa4b316ba176fb056e10d1b4748ca1912f9049d1a9859",
      "blockNumber": "0x1d81618",
      "gasUsed": "0x300e6",
      "effectiveGasPrice": "0xfe",
      "blobGasUsed": "0x9c40",
      "from": "0x8b9616c56fc48cf040f7204cfd6d67ef34f6cf21",
      "to": "0xd61e5e3a3ac3eea56466462dbd0121c5e29aaeb7",
      "contractAddress": null,
      "daFootprintGasScalar": "0x190",
      "l1BaseFeeScalar": "0x2af8",
      "l1BlobBaseFee": "0x1",
      "l1BlobBaseFeeScalar": "0x109618",
      "l1Fee": "0xf9",
      "l1GasPrice": "0x8",
      "l1GasUsed": "0x640"
    },
    {
      "status": "0x1",
      "cumulativeGasUsed": "0x35582",
      "logs": [
        {
          "address": "0xd61e5e3a3ac3eea56466462dbd0121c5e29aaeb7",
          "topics": [
            "0x3cb7f6eca2e89478480f2e19de24bf888294c28de0d596963a54d49a51e2252d",
            "0x00000000000000000000000009f484232739f451ac5bd79d77c8d2889e412030",
            "0x0000000000000000000000008b9616c56fc48cf040f7204cfd6d67ef34f6cf21"
          ],
          "data": "0x0000000000000000000000000000000000000000000000000000000000000040000000000000000000000000000000000000000000000000000000006b36626a000000000000000000000000000000000000000000000000000000000000000b4144445f5245434f524453000000000000000000000000000000000000000000",
          "blockHash": "0xf80b26966c5c25204aa59b63dbf57dcede8cad8833ad3c82f201a4b1b82b064f",
          "blockNumber": "0x1d8161a",
          "blockTimestamp": "0x69552f14",
          "transactionHash": "0xeafd08a7e4abf72312fc97eb6f3f1fc30dd20c0f4adc382775886ed743d050b6",
          "transactionIndex": "0x1",
          "logIndex": "0x0",
          "removed": false
        }
      ],
      "logsBloom": "0x00000000000000000000000000000000000000000000000000000000000000000000000000000000000000000000000000000000000008000100000000000000000000000000000000000800000000000001008000000000000200000000000000000000400400000000000000000002000000040000000000000000000000000000000000000000000000000000000000000000000000000000000000000000000000000000000100000000000000000000000000000000000000000000002000000000000000000000000000000000000000000000000000000000000000000000000000000000000000000000000000000000000000000000000000000000",
      "type": "0x2",
      "transactionHash": "0xeafd08a7e4abf72312fc97eb6f3f1fc30dd20c0f4adc382775886ed743d050b6",
      "transactionIndex": "0x1",
      "blockHash": "0xf80b26966c5c25204aa59b63dbf57dcede8cad8833ad3c82f201a4b1b82b064f",
      "blockNumber": "0x1d8161a",
      "gasUsed": "0x2a140",
      "effectiveGasPrice": "0xfe",
      "blobGasUsed": "0xa8c0",
      "from": "0x09f484232739f451ac5bd79d77c8d2889e412030",
      "to": "0xd61e5e3a3ac3eea56466462dbd0121c5e29aaeb7",
      "contractAddress": null,
      "daFootprintGasScalar": "0x190",
      "l1BaseFeeScalar": "0x2af8",
      "l1BlobBaseFee": "0x1",
      "l1BlobBaseFeeScalar": "0x109618",
      "l1Fee": "0x10f",
      "l1GasPrice": "0x8",
      "l1GasUsed": "0x6cd"
    },
    {
      "status": "0x1",
      "cumulativeGasUsed": "0x4750f",
      "logs": [
        {
          "address": "0xd61e5e3a3ac3eea56466462dbd0121c5e29aaeb7",
          "topics": [
            "0x5ad1b580d9c61c992fa3f879f9d282b40b66d49fd5006905bf1844d6f8084df8",
            "0x00000000000000000000000009f484232739f451ac5bd79d77c8d2889e412030",
            "0x0000000000000000000000008b9616c56fc48cf040f7204cfd6d67ef34f6cf21"
          ],
          "data": "0x0000000000000000000000000000000000000000000000000000000000000060000000000000000000000000000000000000000000000000000000000000000000000000000000000000000000000000000000000000000000000000000000a0000000000000000000000000000000000000000000000000000000000000001a516d547970686f69645265636f72645f3137363731393032353000000000000000000000000000000000000000000000000000000000000000000000000000054130312e30000000000000000000000000000000000000000000000000000000",
          "blockHash": "0x2522ba870eee619d701a215eee1bd39b6ff6e190af80e6dfdb93af7c9cda7430",
          "blockNumber": "0x1d8161c",
          "blockTimestamp": "0x69552f18",
          "transactionHash": "0x7f56f29f3e8b8a7d1110f93031ca0f75060577b3cbaca470a47837c2c606b71a",
          "transactionIndex": "0x1",
          "logIndex": "0x0",
          "removed": false
        }
      ],
      "logsBloom": "0x00000000000000000000000000000000000000000000000000000000000000000000000000000000000000000000000000000000000008000100000000000000000000000000000000000800000000000000008000000000000000000000000000000000400400000000000000000002000000008000000000000000000000000000000000000000000000000000000000000000000000000000000000000000000000000000000100000000000000000000000000000000000000000000002000000000000000000000000000000000000000000000000100000000000000000000000000000000000000000000000000000400000000000000000000000000",
      "type": "0x2",
      "transactionHash": "0x7f56f29f3e8b8a7d1110f93031ca0f75060577b3cbaca470a47837c2c606b71a",
      "transactionIndex": "0x1",
      "blockHash": "0x2522ba870eee619d701a215eee1bd39b6ff6e190af80e6dfdb93af7c9cda7430",
      "blockNumber": "0x1d8161c",
      "gasUsed": "0x3c0cd",
      "effectiveGasPrice": "0xfe",
      "blobGasUsed": "0x11940",
      "from": "0x8b9616c56fc48cf040f7204cfd6d67ef34f6cf21",
      "to": "0xd61e5e3a3ac3eea56466462dbd0121c5e29aaeb7",
      "contractAddress": null,
      "daFootprintGasScalar": "0x190",
      "l1BaseFeeScalar": "0x2af8",
      "l1BlobBaseFee": "0x1",
      "l1BlobBaseFeeScalar": "0x109618",
      "l1Fee": "0x1c2",
      "l1GasPrice": "0x8",
      "l1GasUsed": "0xb4c"
    },
    {
      "status": "0x1",
      "cumulativeGasUsed": "0x328a2",
      "logs": [
        {
          "address": "0xd61e5e3a3ac3eea56466462dbd0121c5e29aaeb7",
          "topics": [
            "0x3cb7f6eca2e89478480f2e19de24bf888294c28de0d596963a54d49a51e2252d",
            "0x00000000000000000000000009f484232739f451ac5bd79d77c8d2889e412030",
            "0x000000000000000000000000473c714d981337f715d97d1e49675be954d75672"
          ],
          "data": "0x000000000000000000000000000000000000000000000000000000000000004000000000000000000000000000000000000000000000000000000000697cbbea000000000000000000000000000000000000000000000000000000000000000c564945575f5245434f5244530000000000000000000000000000000000000000",
          "blockHash": "0x5d24fadcbbef7a77fc13ca96e8716b6a2bc756ef174baabe0307fbbe1856df12",
          "blockNumber": "0x1d8161e",
          "blockTimestamp": "0x69552f1c",
          "transactionHash": "0xde9b1a6e12522a7ecfd53e92e46c302917eddd52ed52a4de2c2b402062e59e3a",
          "transactionIndex": "0x1",
          "logIndex": "0x0",
          "removed": false
        }
      ],
      "logsBloom": "0x00000100000000000000000000000000000000000000000000000000000000000000000000000000000000000000000000000000000008000100000000000000000000000000000000000000000000000001000000000000000200000000000000000000000400000000000000000002000000040000000000000000000000000000000000000000000000000000000000000000000000000000000000000000000000000000000100000000000000000000000040000000000000000000002000000000000000000000000000000000000000000000000000000000000000000000000000000000000000000000000000000000000000010000000000000000",
      "type": "0x2",
      "transactionHash": "0xde9b1a6e12522a7ecfd53e92e46c302917eddd52ed52a4de2c2b402062e59e3a",
      "transactionIndex": "0x1",
      "blockHash": "0x5d24fadcbbef7a77fc13ca96e8716b6a2bc756ef174baabe0307fbbe1856df12",
      "blockNumber": "0x1d8161e",
      "gasUsed": "0x25e80",
      "effectiveGasPrice": "0xfe",
      "blobGasUsed": "0xaa50",
      "from": "0x09f484232739f451ac5bd79d77c8d2889e412030",
      "to": "0xd61e5e3a3ac3eea56466462dbd0121c5e29aaeb7",
      "contractAddress": null,
      "daFootprintGasScalar": "0x190",
      "l1BaseFeeScalar": "0x2af8",
      "l1BlobBaseFee": "0x1",
      "l1BlobBaseFeeScalar": "0x109618",
      "l1Fee": "0x111",
      "l1GasPrice": "0x8",
      "l1GasUsed": "0x6da"
    }
  ],
  "libraries": [],
  "pending": [],
  "returns": {},
  "timestamp": 1767190301147,
  "chain": 4202,
  "commit": "bb1829c"
}